{
  "contractName": "VotesContract",
  "abi": [
    {
      "inputs": [
        {
          "internalType": "uint256",
          "name": "",
          "type": "uint256"
        }
      ],
      "name": "votes",
      "outputs": [
        {
          "internalType": "uint256",
          "name": "id",
          "type": "uint256"
        },
        {
          "internalType": "string",
          "name": "fullname",
          "type": "string"
        },
        {
          "internalType": "string",
          "name": "option",
          "type": "string"
        },
        {
          "internalType": "bool",
          "name": "done",
          "type": "bool"
        },
        {
          "internalType": "uint256",
          "name": "createdAt",
          "type": "uint256"
        }
      ],
      "stateMutability": "view",
      "type": "function",
      "constant": true
    },
    {
      "inputs": [
        {
          "internalType": "string",
          "name": "_fullname",
          "type": "string"
        },
        {
          "internalType": "string",
          "name": "_option",
          "type": "string"
        }
      ],
      "name": "doVote",
      "outputs": [],
      "stateMutability": "nonpayable",
      "type": "function"
    },
    {
      "inputs": [],
      "name": "proccessVote",
      "outputs": [],
      "stateMutability": "nonpayable",
      "type": "function"
    }
  ],
  "bytecode": "0x60806040526000805534801561001457600080fd5b506107bb806100246000396000f3fe608060405234801561001057600080fd5b50600436106100415760003560e01c80635df813301461004657806366f5d3a51461007a578063f94c94d414610096575b600080fd5b610060600480360381019061005b9190610461565b6100a0565b6040516100719594939291906104e5565b60405180910390f35b610094600480360381019061008f91906103e9565b6101f3565b005b61009e6102bf565b005b60016020528060005260406000206000915090508060000154908060010180546100c990610610565b80601f01602080910402602001604051908101604052809291908181526020018280546100f590610610565b80156101425780601f1061011757610100808354040283529160200191610142565b820191906000526020600020905b81548152906001019060200180831161012557829003601f168201915b50505050509080600201805461015790610610565b80601f016020809104026020016040519081016040528092919081815260200182805461018390610610565b80156101d05780601f106101a5576101008083540402835291602001916101d0565b820191906000526020600020905b8154815290600101906020018083116101b357829003601f168201915b5050505050908060030160009054906101000a900460ff16908060040154905085565b6040518060a0016040528060005481526020018381526020018281526020016000151581526020014281525060016000805481526020019081526020016000206000820151816000015560208201518160010190805190602001906102599291906102c1565b5060408201518160020190805190602001906102769291906102c1565b5060608201518160030160006101000a81548160ff021916908315150217905550608082015181600401559050506000808154809291906102b690610673565b91905055505050565b565b8280546102cd90610610565b90600052602060002090601f0160209004810192826102ef5760008555610336565b82601f1061030857805160ff1916838001178555610336565b82800160010185558215610336579182015b8281111561033557825182559160200191906001019061031a565b5b5090506103439190610347565b5090565b5b80821115610360576000816000905550600101610348565b5090565b60006103776103728461056b565b610546565b9050828152602081018484840111156103935761039261074e565b5b61039e8482856105ce565b509392505050565b600082601f8301126103bb576103ba610749565b5b81356103cb848260208601610364565b91505092915050565b6000813590506103e38161076e565b92915050565b60008060408385031215610400576103ff610758565b5b600083013567ffffffffffffffff81111561041e5761041d610753565b5b61042a858286016103a6565b925050602083013567ffffffffffffffff81111561044b5761044a610753565b5b610457858286016103a6565b9150509250929050565b60006020828403121561047757610476610758565b5b6000610485848285016103d4565b91505092915050565b610497816105b8565b82525050565b60006104a88261059c565b6104b281856105a7565b93506104c28185602086016105dd565b6104cb8161075d565b840191505092915050565b6104df816105c4565b82525050565b600060a0820190506104fa60008301886104d6565b818103602083015261050c818761049d565b90508181036040830152610520818661049d565b905061052f606083018561048e565b61053c60808301846104d6565b9695505050505050565b6000610550610561565b905061055c8282610642565b919050565b6000604051905090565b600067ffffffffffffffff8211156105865761058561071a565b5b61058f8261075d565b9050602081019050919050565b600081519050919050565b600082825260208201905092915050565b60008115159050919050565b6000819050919050565b82818337600083830152505050565b60005b838110156105fb5780820151818401526020810190506105e0565b8381111561060a576000848401525b50505050565b6000600282049050600182168061062857607f821691505b6020821081141561063c5761063b6106eb565b5b50919050565b61064b8261075d565b810181811067ffffffffffffffff8211171561066a5761066961071a565b5b80604052505050565b600061067e826105c4565b91507fffffffffffffffffffffffffffffffffffffffffffffffffffffffffffffffff8214156106b1576106b06106bc565b5b600182019050919050565b7f4e487b7100000000000000000000000000000000000000000000000000000000600052601160045260246000fd5b7f4e487b7100000000000000000000000000000000000000000000000000000000600052602260045260246000fd5b7f4e487b7100000000000000000000000000000000000000000000000000000000600052604160045260246000fd5b600080fd5b600080fd5b600080fd5b600080fd5b6000601f19601f8301169050919050565b610777816105c4565b811461078257600080fd5b5056fea26469706673582212206d7956796f6732f85179a67917eae95c51749bbfd60cfea0cb3d1941f0da999064736f6c63430008060033",
  "immutableReferences": {},
  "source": "// SPDX-License-Identifier: MIT\npragma solidity ^0.8.6;\n\ncontract VotesContract {\n\n    uint counter = 0;\n\n    /* Se define la estructura del voto */\n    struct Vote {\n        uint256 id;\n        string fullname;\n        string option;\n        bool done;\n        uint256 createdAt;\n    }\n\n    /*Aqui se mapea cada voto como un array */\n    mapping (uint256 => Vote ) public votes;\n\n    //hacer el voto\n    function doVote(string memory _fullname, string memory _option) public {\n        votes[counter] = Vote(counter, _fullname, _option, false, block.timestamp);\n        counter++;\n    }\n\n    //procesar el voto\n    function proccessVote() public {\n\n    }\n}\n",
  "sourcePath": "/home/adrian/Escritorio/projects/myfirstvote/contracts/VotesContract.sol",
  "compiler": {
    "name": "solc",
    "version": "0.8.6+commit.11564f7e.Emscripten.clang"
  },
  "schemaVersion": "3.4.7",
  "updatedAt": "2022-04-27T01:45:12.307Z",
  "networkType": "ethereum",
  "devdoc": {
    "kind": "dev",
    "methods": {},
    "version": 1
  },
  "userdoc": {
    "kind": "user",
    "methods": {},
    "version": 1
  }
}